:100000000C94E8010C9410020C9410020C94100251
:100010000C9410020C9410020C9410020C94100218
:100020000C94CB060C9410020C9410020C94100249
:100030000C9410020C9410020C9410020C941002F8
:100040000C9429060C9410020C9499060C947306D7
:100050000C9410020C9410020C9410020C941002D8
:100060000C9410020C9410020000000024002700E1
:100070002A00456E746572203020546F2066696EC8
:100080006973682073656E64696E670052656164A8
:100090007920746F2073656E6420495220736967FC
:1000A0006E616C732061742070696E2000506C6505
:1000B00061736520656E7465722074686520636F76
:1000C00072726563742070726F746F636F6C206EF0
:1000D000756D626572203A202866726F6D2031203E
:1000E000746F2036290053656E64696E672049522B
:1000F00020436F6465732D2D2D3E20002D2D2D2D59
:100100002D2D2D2D2D2D2D2D2D2D2D2D2D2D2D2D1F
:100110002D2D2D2D2D2D2D2D2D2D2D2D0050726F92
:10012000746F636F6C203A204C470053656E6469AE
:100130006E6720495220436F6465732D2D2D3E203C
:10014000002D2D2D2D2D2D2D2D2D2D2D2D2D2D2D0C
:100150002D2D2D2D2D2D2D2D2D2D2D2D2D2D2D2DCF
:100160002D0050726F746F636F6C203A2053616D75
:1001700073756E670053656E64696E67204952201F
:10018000436F6465732D2D2D3E20002D2D2D2D2DBB
:100190002D2D2D2D2D2D2D2D2D2D2D2D2D2D2D2D8F
:1001A0002D2D2D2D2D2D2D2D2D2D2D0050726F74BB
:1001B0006F636F6C203A204A56430053656E646942
:1001C0006E6720495220436F6465732D2D2D3E20AC
:1001D000002D2D2D2D2D2D2D2D2D2D2D2D2D2D2D7C
:1001E0002D2D2D2D2D2D2D2D2D2D2D2D2D2D2D2D3F
:1001F0002D0050726F746F636F6C203A2050616EE7
:1002000061736F6E69630053656E64696E67204940
:100210005220436F6465732D2D2D3E20002D2D2D12
:100220002D2D2D2D2D2D2D2D2D2D2D2D2D2D2D2DFE
:100230002D2D2D2D2D2D2D2D2D2D2D2D2D005072B3
:100240006F746F636F6C203A20536F6E7900536543
:100250006E64696E6720495220436F6465732D2D6B
:100260002D3E20002D2D2D2D2D2D2D2D2D2D2D2DE7
:100270002D2D2D2D2D2D2D2D2D2D2D2D2D2D2D2DAE
:100280002D2D2D2D0050726F746F636F6C203A20EE
:100290004E454300436F6D6D616E64203A203078A7
:1002A0000041646472657373203A203078002D2D0C
:1002B0002D2D2D2D2D20495220436F64657320492B
:1002C0006E666F202D2D2D2D2D2D2D00456E746504
:1002D0007220436F6D6D616E64203A00456E7465E7
:1002E000722041646472657373203A0053656C65D3
:1002F0006374207468652064657369726564207036
:10030000726F746F636F6C202866726F6D2031207E
:10031000746F2036293A0036202D204C47003520B6
:100320002D2053616D73756E670034202D204A5661
:10033000430033202D2050616E61736F6E6963003E
:1003400032202D20536F6E790031202D204E4543F1
:10035000002D2D2D2D2D2D2D2D2D2D2D2D2D2D2DFA
:100360002D2D2D2D2D2D2D2D2D2D2D2D2D2D2D2DBD
:100370002D2D2D2D2D2D2D2D2D2D2D2D2D00000034
:100380000000250028002B000000000800020100EA
:10039000000304070000000000000000000000004F
:1003A00023002600290004040404040404040202B7
:1003B00002020202030303030303010204081020E4
:1003C0004080010204081020010204081020730775
:1003D00011241FBECFEFD8E0DEBFCDBF22E0A8E1E1
:1003E000B1E001C01D92AD3CB207E1F711E0A0E021
:1003F000B1E0E2EBFBE102C005900D92A831B1073C
:10040000D9F711E0C8EED1E004C02197FE010E94A7
:10041000D10DC73ED107C9F70E94C1070C94D70D73
:100420000C94000090E0FC01E857FC4F2491FC0183
:10043000E654FC4F3491FC01EA55FC4FE491EE2365
:10044000C9F0222339F0233001F1A8F4213019F149
:10045000223029F1F0E0EE0FFF1FE258FC4FA5918A
:10046000B4918FB7F894EC91611126C030953E237A
:100470003C938FBF08952730A9F02830C9F024306D
:1004800049F7809180008F7D03C0809180008F7735
:1004900080938000DFCF84B58F7784BDDBCF84B5B8
:1004A0008F7DFBCF8091B0008F778093B000D2CF4B
:1004B0008091B0008F7DF9CF3E2BDACF3FB7F89413
:1004C00080911F0190912001A0912101B091220102
:1004D00026B5A89B05C02F3F19F00196A11DB11D9F
:1004E0003FBFBA2FA92F982F8827BC01CD01620FDB
:1004F000711D811D911D42E0660F771F881F991F96
:100500004A95D1F708958F929F92AF92BF92CF9262
:10051000DF92EF92FF926C01F12CE12C0E945E02BF
:100520004B015C0124E0821A9108A108B1080E94E5
:100530005E02681979098A099B096C157D058E058B
:100540009F05A8F3FF90EF90DF90CF90BF90AF9002
:100550009F908F9008958F929F92AF92BF92CF926B
:10056000DF92EF92FF924B015C010E945E026B01F1
:100570007C010E945E026C197D098E099F09683E0C
:10058000734081059105A8F321E0821A9108A10822
:10059000B10888EEC80E83E0D81EE11CF11C81145E
:1005A0009104A104B10429F7FF90EF90DF90CF9060
:1005B000BF90AF909F908F900895AF92BF92CF92CF
:1005C000DF92EF92FF920F931F93CF93DF936C0113
:1005D0007B018B01040F151FEB015E01AE18BF08F4
:1005E000C017D10759F06991D601ED91FC910190A6
:1005F000F081E02DC6010995892B79F7C501DF91BE
:10060000CF911F910F91FF90EF90DF90CF90BF900F
:10061000AF900895FC01538D448D252F30E0842F39
:1006200090E0821B930B541710F0CF96089501971A
:100630000895FC01918D828D981761F0A28DAE0F07
:10064000BF2FB11D5D968C91928D9F5F9F73928F8E
:1006500090E008958FEF9FEF08950F931F93CF932E
:10066000DF9307E211E0D0E0C0E02FB7F89480916B
:10067000230190912401A0912501B09126012FBF63
:100680008093470190934801A0934901B0934A0198
:100690008FE391E00E94190397FF2AC02FB7F894C7
:1006A0008091230190912401A0912501B091260110
:1006B0002FBF4091470150914801609149017091CD
:1006C0004A01841B950BA60BB70B40914301509137
:1006D0004401609145017091460184179507A60772
:1006E000B707B0F2CE01DF91CF911F910F9108951E
:1006F0008A309105B9F3F80181938F012196C431B5
:10070000D10509F0B2CFEECFFC01918D828D981703
:1007100031F0828DE80FF11D858D90E008958FEF07
:100720009FEF0895FC01918D228D892F90E0805CD0
:100730009F4F821B91098F73992708958FE391E052
:100740000E94920321E0892B09F420E0822F089572
:1007500080E090E0892B29F00E949E0381110C9487
:1007600000000895FC01A48DA80FB92FB11DA35A54
:10077000BF4F2C91848D90E001968F739927848FC1
:10078000A689B7892C93A089B1898C9183708064E4
:100790008C93938D848D981306C00288F389E02D85
:1007A00080818F7D80830895EF92FF920F931F9336
:1007B000CF93DF93EC0181E0888F9B8D8C8D981314
:1007C0001AC0E889F989808185FF15C09FB7F89420
:1007D000EE89FF896083E889F9898081837080646C
:1007E00080839FBF81E090E0DF91CF911F910F91B7
:1007F000FF90EF900895F62E0B8D10E00F5F1F4FC6
:100800000F731127E02E8C8D8E110CC00FB607FCD4
:10081000FACFE889F989808185FFF5CFCE010E9462
:10082000B203F1CFEB8DEC0FFD2FF11DE35AFF4F1B
:10083000F0829FB7F8940B8FEA89FB8980818062F0
:10084000CFCF0F931F93CF93DF938C01D0E0C0E005
:10085000F801EC0FFD1F6491662341F08FE391E0F6
:100860000E94D403892B11F02196F2CFCE01DF91A3
:10087000CF911F910F910895CF93DF93EC01888D55
:100880008823B9F0AA89BB89E889F9898C9185FD0B
:1008900003C0808186FD0DC00FB607FCF7CF8C9199
:1008A00085FFF2CF808185FFEDCFCE010E94B2039C
:1008B000E9CFDF91CF910895982F8091AE028823E0
:1008C00079F08091AD02992329F061E0811105C092
:1008D0002D9A0895882319F060E00C9412022D9847
:1008E00008954F925F926F927F928F929F92AF92F4
:1008F000BF92CF92DF92EF92FF92CF93DF93CDB76B
:10090000DEB72C970FB6F894DEBF0FBECDBF7C01CB
:100910000E945E0269837A838B839C834B015C0116
:1009200020E0B0E0A0E0A701BD01455251096109F6
:1009300071094D835E836F837887A701BD0147509E
:1009400051096109710949875A876B877C87F89437
:100950005B9A80913D0190913E018230910538F083
:10096000880F991F880F991F05970197F1F75B98DA
:100970007894211103C081E00E945C0480913B01C6
:1009800090913C01880E991EA11CB11C0E945E0230
:100990002B013C016B0169817A81C61AD70AF12CBF
:1009A000E12C8D819E81AF81B885C816D906EA06F3
:1009B000FB061CF080E00E945C0449855A856B852B
:1009C0007C85C416D506E606F7063CF421E04814FB
:1009D00059046A047B04D0F2BACF2C960FB6F8946F
:1009E000DEBF0FBECDBFDF91CF91FF90EF90DF90C4
:1009F000CF90BF90AF909F908F907F906F905F90BF
:100A00004F9008952F923F924F925F926F927F92F4
:100A10008F92AF92CF92DF92EF92FF920F931F933C
:100A2000CF93DF9300D000D000D0CDB7DEB79C834A
:100A30008B837E836D835A83498319012701380193
:100A4000AA2089F12C2D2150330BC901C12CD12CA6
:100A50007601C39404C0CC0CDD1CEE1CFF1C8A95EF
:100A6000D2F7C114D104E104F104B1F1D701C601F8
:100A700084219521A621B721892B8A2B8B2B69F004
:100A80008B819C810E9471048D819E810E948302D2
:100A9000F694E794D794C794E4CF89819A810E9411
:100AA0007104C101F3CFF12CCF14B1F040FE0EC0A0
:100AB0008B819C810E9471048D819E810E948302A2
:100AC000F3947694679457944794EECF89819A81F2
:100AD0000E947104C101F2CF8820D1F089819A81EE
:100AE00026960FB6F894DEBF0FBECDBFDF91CF9133
:100AF0001F910F91FF90EF90DF90CF90AF908F906C
:100B00007F906F905F904F903F902F900C94710466
:100B100026960FB6F894DEBF0FBECDBFDF91CF9102
:100B20001F910F91FF90EF90DF90CF90AF908F903B
:100B30007F906F905F904F903F902F900895EBE3E0
:100B4000F1E0282F269530E028513C4F682F70E0C7
:100B5000C9010E94BD0D7183608388E090E093839A
:100B60008283539A5B9880E00C945C048F929F92EE
:100B7000AF92BF920F931F93CF93DF93CDB7DEB7A2
:100B8000A1970FB6F894DEBF0FBECDBF19A24230B9
:100B900008F44AE08E010F5D1F4F842E912CB12C7A
:100BA000A12CA50194010E944A0DE62FB901CA01AA
:100BB000EA3044F5E05DD801EE938D01232B242B20
:100BC000252B79F790E080E0109769F0FD01019006
:100BD0000020E9F73197AF014A1B5B0BBD018FE3A2
:100BE00091E00E94DD02A1960FB6F894DEBF0FBE21
:100BF000CDBFDF91CF911F910F91BF90AF909F908C
:100C00008F900895E95CD7CF42E050E064E171E055
:100C10008FE391E00C94DD02CF93DF930E942104D7
:100C2000EC010E9404068C0F9D1FDF91CF91089567
:100C3000CF93DF93462F682F70E090E080E00E9412
:100C4000B605EC010E9404068C0F9D1FDF91CF9129
:100C500008951F920F920FB60F9211242F933F9376
:100C60008F939F93AF93BF93809123019091240121
:100C7000A0912501B091260130911E0123E0230FA0
:100C80002D3758F50196A11DB11D20931E018093AB
:100C9000230190932401A0932501B0932601809114
:100CA0001F0190912001A0912101B0912201019694
:100CB000A11DB11D80931F0190932001A0932101DC
:100CC000B0932201BF91AF919F918F913F912F914E
:100CD0000F900FBE0F901F90189526E8230F0296D5
:100CE000A11DB11DD2CF1F920F920FB60F921124EA
:100CF0002F933F934F935F936F937F938F939F9324
:100D0000AF93BF93EF93FF938FE391E00E94B20301
:100D1000FF91EF91BF91AF919F918F917F916F91D3
:100D20005F914F913F912F910F900FBE0F901F90A9
:100D300018951F920F920FB60F9211242F938F9335
:100D40009F93EF93FF93E0914F01F09150018081C9
:100D5000E0915501F091560182FD1BC09081809178
:100D600058018F5F8F7320915901821741F0E091F4
:100D70005801F0E0E15CFE4F958F80935801FF91A0
:100D8000EF919F918F912F910F900FBE0F901F9019
:100D900018958081F4CF1F920F920FB60F921124F5
:100DA0002F933F934F935F936F937F938F939F9373
:100DB000AF93BF93EF93FF93E091DE01F091DF01DA
:100DC00090818091E00198232091E1013091E2012E
:100DD0002F3F320731F02F5F3F4F3093E2012093D6
:100DE000E1018091DC01811132C0911116C0209186
:100DF000E1013091E2012536310558F01092E3010E
:100E00003093E6012093E50181E08093E401809333
:100E1000DC011092E2011092E1018091AE02882380
:100E200029F081E0911180E00E945C04FF91EF9134
:100E3000BF91AF919F918F917F916F915F914F91F2
:100E40003F912F910F900FBE0F901F90189580919A
:100E5000DC018130A1F4992301F3E091E4018E0FCC
:100E60008093E401F0E0EE0FFF1FE452FE4F20916B
:100E7000E1013091E2013287218782E0C8CF809181
:100E8000DC01823039F5911119C0E091E40181E073
:100E9000E43620F08093E30183E0B9CF8E0F809396
:100EA000E401F0E0EE0FFF1FE452FE4F2091E1015C
:100EB0003091E2013287218781E0A9CF2091E101C1
:100EC0003091E2012536310508F4A7CF83E0809305
:100ED000DC01A3CF8091DC01833009F09ECF992300
:100EE00009F497CF9ACFEFE3F1E01382128288EEF4
:100EF00093E0A0E0B0E084839583A683B78386E087
:100F000091E09183808385EC90E09587848784ECE1
:100F100090E09787868780EC90E0918B808B81ECC6
:100F200090E0938B828B82EC90E0958B848B86ECA7
:100F300090E0978B868B118E128E138E148EACEDF3
:100F4000B1E0B093BF02A093BE0211961C9211971C
:100F5000EAEBF3E0E4911496EC931497E6EAF3E0FD
:100F6000E491F0E0EE0FFF1FE456FC4F8591949161
:100F700013969C938E931297EDEAF2E01082118201
:100F80000895CF93DF9300D000D000D0CDB7DEB767
:100F9000789484B5826084BD84B5816084BD85B554
:100FA000826085BD85B5816085BD80916E00816060
:100FB00080936E0010928100809181008260809306
:100FC0008100809181008160809381008091800008
:100FD0008160809380008091B10084608093B10033
:100FE0008091B00081608093B00080917A0084602D
:100FF00080937A0080917A00826080937A00809159
:101000007A00816080937A0080917A008068809372
:101010007A001092C100E0914F01F091500182E0FE
:101020008083E0914B01F0914C011082E0914D01E1
:10103000F0914E0180E1808310925701E0915301BD
:10104000F091540186E08083E0915101F0915201CA
:10105000808180618083E0915101F0915201808113
:1010600088608083E0915101F09152018081806815
:101070008083E0915101F091520180818F7D8083C6
:101080001092AD0281E08093AE02E7ECF3E0249190
:10109000E3EBF3E08491882399F090E0880F991FA7
:1010A000FC01E859FF4FA591B491FC01E258FC4FB7
:1010B000859194918FB7F894EC91E22BEC938FBFCC
:1010C0008CE890E00E9421044AE063E070E080E058
:1010D00090E00E94B6050E94040682E790E00E941C
:1010E0000C06DD24DA94E0E02E2EE0E03E2ED092D5
:1010F000010110921A0110921B0110921C01109212
:101100001D0110921901D09200011092180181E581
:1011100093E00E940C0689E493E00E940C0680E4B0
:1011200093E00E940C0682E393E00E940C068AE2A0
:1011300093E00E940C068EE193E00E940C0687E18A
:1011400093E00E940C068CEE92E00E940C068091C7
:1011500001018F3F39F48FE391E00E9419038093DE
:101160000101F5CF8CED92E00E940C0680911A01EE
:1011700090911B01A0911C01B0911D01892B8A2B1C
:101180008B2BC1F40E942D03FC01FF27E95DFE4F6C
:10119000108240E150E070E060E087E291E00E9460
:1011A000170C60931A0170931B0180931C0190939C
:1011B0001D01DCCF8CEC92E00E940C06809119019D
:1011C000811112C00E942D03FC01FF27E95DFE4F33
:1011D000108240E150E070E060E087E291E00E9420
:1011E000170C60931901EACF8EEA92E00E940C0678
:1011F00081EA92E00E94210460911A0170911B0122
:1012000080911C0190911D0140E10E94B6050E9451
:10121000040684E992E00E94210460E170E080917C
:1012200019010E94180680910101833309F497C1C6
:10123000B4F4813309F4AEC0823309F414C18DEAE9
:1012400090E00E940C062114310409F450CF0E9452
:101250009E03882309F44BCF0E94000048CF8533BA
:1012600009F440C20CF4DDC1863349F78DE191E009
:101270000E940C068CEF90E00E940C068091000109
:101280008F3F09F780911901282F30E040901A0113
:1012900050901B0160901C0170901D01E4E1440C12
:1012A000551C661C771CEA95D1F744245524B0EFF1
:1012B0006B22BFE07B2290E0B0E0A0E0F4E0880F7A
:1012C000991FAA1FBB1FFA95D1F784299529A62932
:1012D000B72944E050E060E0722F7F70670F74E040
:1012E000369527957A95E1F741505109A9F7262FB0
:1012F0002F702C013D01422A86E20E949F0588E260
:1013000093E20E94710488E690E10E94830288249F
:101310008394AA24A3948CE1C82E8301720126E24F
:1013200032E044EF51E06CE276E084EF91E00E941D
:10133000020564E370E080E090E00E94AB0286E288
:101340000E949F0588E293E20E94710480ED97E07D
:101350000E94830284EF91E00E94710486EE90E087
:101360000E9421046AE070E0809118010E94180632
:10137000809118018F5F8093180168E873E180E025
:1013800090E00E94AB028FE391E00E9419038093EA
:10139000000174CF85E892E00E940C0684E692E09A
:1013A0000E940C06809100018F3F09F04CCF009104
:1013B000190190911A0180911B01E92EF82E9701D5
:1013C0002227F92EF094232B09F0F82E102F1095D8
:1013D00086E20E949F0580E093E20E94710480E80B
:1013E00091E10E94830288248394A12C70E2C72E8D
:1013F00020E332E040E352E060E976E080E392E00F
:101400000E94020560E370E080E090E00E94AB0281
:1014100086E20E949F0580E093E20E94710480ECC6
:1014200098E00E94830280E392E00E9471048EE4BF
:1014300092E00E9421046AE070E0809118010E940D
:101440001806809118018F5F8093180168E873E196
:1014500080E090E00E94AB028FE391E00E941903CC
:10146000809300019FCF8EE392E00E940C068DE1F5
:1014700092E00E940C06809100018F3F09F0E3CEBC
:101480004090190180901A0190901B01A0901C01BE
:10149000B0901D0188E20E949F0582E090E09E834B
:1014A0008D83512C712C612CD501C401AA27BB2737
:1014B00089839A83AB83BC8380E699E00E947104A0
:1014C00088E592E00E948302812CA12C57E0C52E72
:1014D0008301720128E532E048E552E068E572E0F8
:1014E00080EB94E00E94020565E0C62EE980FA8058
:1014F0000B811C8128E532E048E552E068E572E0A6
:1015000080EB94E00E940205AD81BE81119759F0F5
:1015100068E170E080E090E00E94AB0281E090E042
:101520009E838D83C9CF87E092E00E9421046AE008
:1015300070E0809118010E941806809118018F5F59
:101540008093180168E873E180E090E00E94AB02AC
:101550008FE391E00E941903809300018CCF82EF0A
:1015600091E00E940C0681ED91E00E940C068091B2
:1015700000018F3F09F067CE40901901A0911A0138
:10158000B0911B01BA83A98385E20E949F058981DE
:101590009A8134E0880F991F3A95E1F79A838983FD
:1015A000582E5926542442E0642E712C80E89DE088
:1015B0000E94710480EC96E00E948302812CA12C91
:1015C00080E1C82E12E0E12E10E2F12E00E010E0E2
:1015D00020EB31E040EB51E060E175E080EB91E021
:1015E0000E9402058824839420E2C22EE980FA80BA
:1015F000820120EB31E040EB51E060E175E080EBEF
:1016000091E00E9402056A94672809F4F4C06AE434
:1016100070E080E090E00E94AB0266246394712C3D
:10162000C5CF8CEA91E00E940C068BE891E00E9405
:101630000C06809100018F3F09F005CE4090190102
:10164000A0911A01A98386E20E949F0580EE90E294
:101650000E94710480E790E10E948302B981542CBA
:101660004B2E052C000C6608770888248394A12C47
:1016700010E1C12E830172012EE032E04EE052E013
:101680006AE276E08EE092E00E94020567E170E097
:1016900080E090E00E94AB022EE032E04EE052E0AB
:1016A0006AE276E08EE092E00E94020585E791E032
:1016B0000E9421046AE070E0809118010E941806DF
:1016C000809118018F5F8093180168E873E180E0D2
:1016D00090E00E94AB028FE391E00E941903809397
:1016E0000001A7CF82E691E00E940C0681E491E020
:1016F0000E940C06809100018F3F09F0A4CDE0907C
:1017000019018E2D90E09A83898340901A015090A0
:101710001B0160901C0170901D0186E20E949F05D4
:1017200088E491E10E94710488E491E10E948302BF
:101730008301720100271127812CA12CA0E1CA2E60
:1017400029E232E049E252E06BE776E089E292E09A
:101750000E940205E980FA80E094F094FE2CEE24C9
:10176000A981BA81EA2AFB2A10E000E08824839448
:1017700029E232E049E252E06BE776E089E292E06A
:101780000E94020567E370E080E090E00E94AB02F7
:1017900086E20E949F0588E491E10E94710488E43A
:1017A00091E10E94830289E292E00E94710489E241
:1017B00092E00E94830289E292E00E9471048BE22F
:1017C00091E00E9421046AE070E0809118010E947B
:1017D0001806809118018F5F8093180168E873E103
:1017E00080E090E00E94AB028FE391E00E94190339
:1017F000809300017FCF8BEB91E00E9421046AE08F
:1018000070E0809118010E941806809118018F5F86
:101810008093180168E873E180E090E00E94AB02D9
:101820008FE391E00E94190380930001A0CEB0E005
:10183000A0E0EDE1FCE00C94780D5C016B017A0115
:101840006115710519F0FB0191838083E114F104A6
:1018500051F0C7010297839730F040E030E020E07C
:1018600090E072C05E01E5012196F5011081812FA3
:1018700090E00E942E0D892BA9F71D3201F52196CB
:10188000F501118101E0E114F10409F4DAC0F0E19D
:10189000EF16F10409F082C0103359F488818F7D6E
:1018A000883509F076C0198122960260F0E1EF2EAA
:1018B000F12C812C912CA12C88E0B82E8CC01B32ED
:1018C00021F4E5012296F501118100E0DCCFEAE088
:1018D000EE16F10409F4BBC0F0E1EF16F10409F0D3
:1018E0006DC0E7CF78E0E72EF12C812C912CA12C54
:1018F00060E1B62E70C03FE9310F3A3128F439EA81
:10190000332E80C021E09AC0302F3170C114D10431
:1019100031F0222309F12197F601D183C08327FFFB
:1019200021C060E070E080E090E8311104C06FEF0A
:101930007FEF8FEF9FE722E230E03093CC022093DD
:10194000CB02462F372F282F642F732F822FCDB72E
:10195000DEB7E1E10C94940D01FF04C02297F6017B
:10196000D183C083332341F0909580957095619524
:101970007F4F8F4F9F4FE5CF97FFE3CF82E290E0FD
:101980009093CC028093CB026FEF7FEF8FEF9FE7B6
:10199000D8CF10E3E114F10409F4A4CF28E0E21653
:1019A000F10409F4A2CF0CF092CF812C912CA12C40
:1019B000E0E4BE2E82E0E816F10469F060E070E039
:1019C00080E090E897010F2C000C440B550B0E940F
:1019D0004A0D49015A0120E060E070E0CB01270187
:1019E0000F2C000C66087708FE0150ED352E310EE5
:1019F00039E0331540F43FEB310F3A3108F07BCF3B
:101A000049EC342E310E3E141F040CF07DCF27FD1F
:101A100015C086169706A806B90678F0A3019201AC
:101A20000E943A0D630D711D811D911D613071057C
:101A3000810520E8920708F465CF2FEF21961081E9
:101A4000D3CF103309F42ACF2AE0E22EF12C9CECFC
:101A5000892E982CA82C9CE0B92EBDCF91110C9406
:101A6000370D803219F089508550C8F708959927AD
:101A700088270895DB018F939F930E946C0DBF917F
:101A8000AF91A29F800D911DA39F900DB29F900DCD
:101A900011240895A1E21A2EAA1BBB1BFD010DC043
:101AA000AA1FBB1FEE1FFF1FA217B307E407F5070E
:101AB00020F0A21BB30BE40BF50B661F771F881FEA
:101AC000991F1A9469F760957095809590959B0180
:101AD000AC01BD01CF0108950E94AE0DA59F900DF0
:101AE000B49F900DA49F800D911D112408952F92F5
:101AF0003F924F925F926F927F928F929F92AF929E
:101B0000BF92CF92DF92EF92FF920F931F93CF93EA
:101B1000DF93CDB7DEB7CA1BDB0B0FB6F894DEBF81
:101B20000FBECDBF09942A88398848885F846E84A7
:101B30007D848C849B84AA84B984C884DF80EE80F1
:101B4000FD800C811B81AA81B981CE0FD11D0FB6FA
:101B5000F894DEBF0FBECDBFED010895A29FB00186
:101B6000B39FC001A39F700D811D1124911DB29FD1
:101B7000700D811D1124911D0895AA1BBB1B51E1FD
:101B800007C0AA1FBB1FA617B70710F0A61BB70BED
:101B9000881F991F5A95A9F780959095BC01CD0192
:101BA0000895EE0FFF1F0590F491E02D0994F8942D
:021BB000FFCF65
:101BB200FFFF00000000D403DD020A033C0492038D
:081BC200190384030D0A000061
:00000001FF
