:100000000C9473000C949B000C949B000C949B002C
:100010000C949B000C949B000C949B000C949B00F4
:100020000C94C9030C949B000C949B000C949B00B3
:100030000C949B000C949B000C949B000C949B00D4
:100040000C9427030C949B000C9497030C9471035D
:100050000C949B000C949B000C949B000C949B00B4
:100060000C949B000C949B000000000024002700CF
:100070002A00526561647920746F2073656E642074
:100080004952207369676E616C73206174207069D6
:100090006E200000000000250028002B000000005A
:1000A0000800020100000304070000000000000037
:1000B00000000000002300260029000404040404BA
:1000C0000404040202020202020303030303030105
:1000D00002040810204080010204081020010204DC
:1000E00008102000710411241FBECFEFD8E0DEBF3E
:1000F000CDBF22E0A6E2B1E001C01D92AF3BB20746
:10010000E1F711E0A0E0B1E0E4E1FCE002C005901D
:100110000D92A632B107D9F710E0C3E7D0E004C0D2
:100120002197FE010E940206C237D107C9F70E943B
:10013000BF040C9408060C94000090E0FC01E35608
:10014000FF4F2491FC01E153FF4F3491FC01E55432
:10015000FF4FE491EE23C9F0222339F0233001F15F
:10016000A8F4213019F1223029F1F0E0EE0FFF1F41
:10017000ED56FF4FA591B4918FB7F894EC916111B2
:1001800026C030953E233C938FBF08952730A9F0B9
:100190002830C9F0243049F7809180008F7D03C05A
:1001A000809180008F7780938000DFCF84B58F7738
:1001B00084BDDBCF84B58F7DFBCF8091B0008F777E
:1001C0008093B000D2CF8091B0008F7DF9CF3E2BCD
:1001D000DACF3FB7F89480912B0190912C01A09138
:1001E0002D01B0912E0126B5A89B05C02F3F19F017
:1001F0000196A11DB11D3FBFBA2FA92F982F8827A7
:10020000BC01CD01620F711D811D911D42E0660F81
:10021000771F881F991F4A95D1F708958F929F9253
:10022000AF92BF92CF92DF92EF92FF924B015C01AF
:100230000E94E9006B017C0124E0C21AD108E108A8
:10024000F1080E94E9006C197D098E099F09681563
:1002500079058A059B05A8F3FF90EF90DF90CF907A
:10026000BF90AF909F908F9008958F929F92AF9282
:10027000BF92CF92DF92EF92FF924B015C010E94FE
:10028000E9006B017C010E94E9006C197D098E096F
:100290009F09683E734081059105A8F321E0821A09
:1002A0009108A108B10888EEC80E83E0D81EE11CB1
:1002B000F11C81149104A104B10429F7FF90EF907F
:1002C000DF90CF90BF90AF909F908F900895AF92A6
:1002D000BF92CF92DF92EF92FF920F931F93CF9333
:1002E000DF936C017B018B01040F151FEB015E0195
:1002F000AE18BF08C017D10759F06991D601ED912A
:10030000FC910190F081E02DC6010995892B79F7C8
:10031000C501DF91CF911F910F91FF90EF90DF907A
:10032000CF90BF90AF900895FC01538D448D252F41
:1003300030E0842F90E0821B930B541710F0CF967F
:10034000089501970895FC01918D828D981761F0B1
:10035000A28DAE0FBF2FB11D5D968C91928D9F5FC8
:100360009F73928F90E008958FEF9FEF0895FC01A7
:10037000918D828D981731F0828DE80FF11D858D5A
:1003800090E008958FEF9FEF0895FC01918D228DED
:10039000892F90E0805C9F4F821B91098F73992772
:1003A000089583E391E00E94C50121E0892B09F4BF
:1003B00020E0822F089580E090E0892B29F00E94B0
:1003C000D10181110C9400000895FC01A48DA80FA7
:1003D000B92FB11DA35ABF4F2C91848D90E0019687
:1003E0008F739927848FA689B7892C93A089B189A7
:1003F0008C91837080648C93938D848D981306C048
:100400000288F389E02D80818F7D80830895EF92AB
:10041000FF920F931F93CF93DF93EC0181E0888FBE
:100420009B8D8C8D98131AC0E889F989808185FF8E
:1004300015C09FB7F894EE89FF896083E889F98930
:1004400080818370806480839FBF81E090E0DF9132
:10045000CF911F910F91FF90EF900895F62E0B8D85
:1004600010E00F5F1F4F0F731127E02E8C8D8E1140
:100470000CC00FB607FCFACFE889F989808185FFA7
:10048000F5CFCE010E94E501F1CFEB8DEC0FFD2FF2
:10049000F11DE35AFF4FF0829FB7F8940B8FEA8962
:1004A000FB8980818062CFCFCF93DF93EC01888D71
:1004B0008823B9F0AA89BB89E889F9898C9185FDDF
:1004C00003C0808186FD0DC00FB607FCF7CF8C916D
:1004D00085FFF2CF808185FFEDCFCE010E94E5013F
:1004E000E9CFDF91CF910895982F8091A2028823C0
:1004F00079F08091A102992329F061E0811105C072
:100500002D9A0895882319F060E00C949D002D9891
:1005100008954F925F926F927F928F929F92AF92C7
:10052000BF92CF92DF92EF92FF92CF93DF93CDB73E
:10053000DEB72C970FB6F894DEBF0FBECDBF7C019F
:100540000E94E90069837A838B839C834B015C0161
:1005500020E0B0E0A0E0A701BD01455251096109CA
:1005600071094D835E836F837887A701BD01475072
:1005700051096109710949875A876B877C87F8940B
:100580005B9A80913101909132018230910538F06F
:10059000880F991F880F991F05970197F1F75B98AE
:1005A0007894211103C081E00E94740280912F0190
:1005B00090913001880E991EA11CB11C0E94E90087
:1005C0002B013C016B0169817A81C61AD70AF12C93
:1005D000E12C8D819E81AF81B885C816D906EA06C7
:1005E000FB061CF080E00E94740249855A856B85E9
:1005F0007C85C416D506E606F7063CF421E04814CF
:1006000059046A047B04D0F2BACF2C960FB6F89442
:10061000DEBF0FBECDBFDF91CF91FF90EF90DF9097
:10062000CF90BF90AF909F908F907F906F905F9092
:100630004F900895FC0101900020E9F73197AF0138
:10064000481B590BBC0183E391E00C9467011F9296
:100650000F920FB60F9211242F933F938F939F9376
:10066000AF93BF938091270190912801A091290118
:10067000B0912A013091260123E0230F2D3758F540
:100680000196A11DB11D209326018093270190930F
:100690002801A0932901B0932A0180912B01909108
:1006A0002C01A0912D01B0912E010196A11DB11D2B
:1006B00080932B0190932C01A0932D01B0932E01D8
:1006C000BF91AF919F918F913F912F910F900FBE4E
:1006D0000F901F90189526E8230F0296A11DB11DBB
:1006E000D2CF1F920F920FB60F9211242F933F93E8
:1006F0004F935F936F937F938F939F93AF93BF932A
:10070000EF93FF9383E391E00E94E501FF91EF9166
:10071000BF91AF919F918F917F916F915F914F9119
:100720003F912F910F900FBE0F901F9018951F9221
:100730000F920FB60F9211242F938F939F93EF93E5
:10074000FF93E0914301F09144018081E0914901E0
:10075000F0914A0182FD1BC0908180914C018F5F16
:100760008F7320914D01821741F0E0914C01F0E030
:10077000ED5CFE4F958F80934C01FF91EF919F911F
:100780008F912F910F900FBE0F901F901895808121
:10079000F4CF1F920F920FB60F9211242F933F9315
:1007A0004F935F936F937F938F939F93AF93BF9379
:1007B000EF93FF93E091D201F091D301908180916A
:1007C000D40198232091D5013091D6012F3F3207D3
:1007D00031F02F5F3F4F3093D6012093D5018091A8
:1007E000D001811132C0911116C02091D5013091F4
:1007F000D6012536310558F01092D7013093DA0131
:100800002093D90181E08093D8018093D001109288
:10081000D6011092D5018091A202882329F081E0AF
:10082000911180E00E947402FF91EF91BF91AF910E
:100830009F918F917F916F915F914F913F912F91F8
:100840000F900FBE0F901F9018958091D0018130AE
:10085000A1F4992301F3E091D8018E0F8093D80180
:10086000F0E0EE0FFF1FE053FE4F2091D5013091D5
:10087000D6013287218782E0C8CF8091D0018230B3
:1008800039F5911119C0E091D80181E0E43620F0EA
:100890008093D70183E0B9CF8E0F8093D801F0E029
:1008A000EE0FFF1FE053FE4F2091D5013091D6018E
:1008B0003287218781E0A9CF2091D5013091D601DF
:1008C0002536310508F4A7CF83E08093D001A3CF6C
:1008D0008091D001833009F09ECF992309F497CFFE
:1008E0009ACFE3E3F1E01382128288EE93E0A0E076
:1008F000B0E084839583A683B78384E091E09183FD
:10090000808385EC90E09587848784EC90E09787DE
:10091000868780EC90E0918B808B81EC90E0938BCC
:10092000828B82EC90E0958B848B86EC90E0978BA9
:10093000868B118E128E138E148EA0EDB1E0B093C3
:10094000B302A093B20211961C921197EFECF0E063
:10095000E4911496EC931497EBEBF0E0E491F0E063
:10096000EE0FFF1FEF54FF4F8591949113969C93C8
:100970008E931297E1EAF2E0108211820895CF93EC
:10098000DF93CDB7DEB7A1970FB6F894DEBF0FBEE9
:10099000CDBF789484B5826084BD84B5816084BD08
:1009A00085B5826085BD85B5816085BD80916E000D
:1009B000816080936E00109281008091810082603E
:1009C000809381008091810081608093810080917B
:1009D00080008160809380008091B100846080936A
:1009E000B1008091B00081608093B00080917A0066
:1009F000846080937A0080917A00826080937A008C
:100A000080917A00816080937A0080917A0080687A
:100A100080937A001092C100E0914301F09144016B
:100A200082E08083E0913F01F09140011082E091EB
:100A30004101F091420180E1808310924B01E091ED
:100A40004701F091480186E08083E0914501F091F3
:100A50004601808180618083E0914501F0914601EB
:100A6000808188608083E0914501F091460180811A
:100A700080688083E0914501F091460180818F7DFF
:100A800080831092A10281E08093A202ECEDF0E05D
:100A90002491E8ECF0E08491882399F090E0880FAD
:100AA000991FFC01E859FF4FA591B491FC01ED5647
:100AB000FF4F859194918FB7F894EC91E22BEC93D2
:100AC0008FBF02E710E0F8016491662341F083E3F1
:100AD00091E00E9407020F5F1F4F892BA1F719A217
:100AE00083E388A3CE0180960E941A032AE1E22EB6
:100AF000F12C38E0C32ED12C40E0A42E40E0B42EDF
:100B0000F0923001E0922F01D0923201C092310177
:100B1000539A5B9880E00E94740288E293E20E94FC
:100B2000890268E670E180E090E00E940E010CE12D
:100B300010E0412C512C612C98E0792ED301C20198
:100B40008A7A9927AA27B870892B8A2B8B2B09F4CC
:100B500050C084EF91E00E9489026CE276E080E070
:100B600090E00E940E017694679457944794015048
:100B7000110921F784EF91E00E94890264E370E09B
:100B800080E090E00E943501F0923001E0922F0168
:100B9000D0923201C0923101539A5B9880E00E945A
:100BA000740288E293E20E94890260ED77E080E0BF
:100BB00090E00E940E0184EF91E00E94890260EDB6
:100BC00077E080E090E00E94350182E191E00E94B0
:100BD0001A0382E291E00E941A03A114B10409F4FD
:100BE0008FCF0E94D101882309F48ACF0E94000090
:100BF00087CF84EF91E00E94890266E272E080E094
:100C000090E0AFCFEE0FFF1F0590F491E02D099417
:040C1000F894FFCF86
:100C1400000000000702670194015402C501A3010A
:100C2400B70153656E642044617461204167616952
:060C34006E000D0A000035
:00000001FF
