:100000000C943E010C9466010C9466010C946601FC
:100010000C9466010C9466010C9466010C946601C4
:100020000C9410060C9466010C9466010C94660105
:100030000C9466010C9466010C9466010C946601A4
:100040000C946E050C9466010C94DE050C94B805B6
:100050000C9466010C9466010C9466010C94660184
:100060000C9466010C946601000000002400270037
:100070002A002D2D2D2D2D2D2D2D2D2D2D2D2D2DE0
:100080002D2D2D2D2D2D2D2D2D2D2D2D2D2D2D2DA0
:100090002D2D2D2D2D2D2D2D2D2D2D2D2D2D0045A5
:1000A0006E746572203020546F2066696E697368C3
:1000B0002073656E64696E670052656164792074AF
:1000C0006F2073656E64204952207369676E616C9E
:1000D000732061742070696E200053656E64204443
:1000E0006174612E2E2E0050726F746F636F6C20DE
:1000F0003A204C470053656E6420446174612E2E93
:100100002E0050726F746F636F6C203A2053616DD4
:1001100073756E670053656E6420446174612E2EA2
:100120002E0050726F746F636F6C203A204A5643F2
:100130000053656E6420446174612E2E2E0050724F
:100140006F746F636F6C203A2050616E61736F6ED5
:1001500069630053656E6420446174612E2E2E0025
:1001600050726F746F636F6C203A20536F6E79001A
:1001700053656E6420446174612E2E2E0050726FA0
:10018000746F636F6C203A204E454300436F6D6D72
:10019000616E64203A307800416464726573732044
:1001A0003A307800456E74657220436F6D6D616EF4
:1001B00064203A00456E7465722041646472657310
:1001C00073203A0053656C6563742074686520641D
:1001D0006573697265642070726F746F636F6C20F1
:1001E0002866726F6D203120746F2036293A0036F0
:1001F000202D204C470035202D2053616D73756EE6
:10020000670034202D204A56430033202D205061B2
:100210006E61736F6E69630032202D20536F6E79AB
:100220000031202D204E454300000000002500280D
:10023000002B00000000080002010000030407007A
:10024000000000000000000000000023002600293C
:10025000000404040404040404020202020202036F
:100260000303030303010204081020408001020479
:1002700008102001020408102000B80611241FBE37
:10028000CFEFD8E0DEBFCDBF22E0A8E1B1E001C0F2
:100290001D92AC3CB207E1F711E0A0E0B1E0ECE761
:1002A000F9E102C005900D92A831B107D9F711E02C
:1002B000CEE3D1E004C02197FE010E94B60CCD33FD
:1002C000D107C9F70E9406070C94BC0C0C940000DF
:1002D00090E0FC01ED5CFD4F2491FC01EB59FD4FDA
:1002E0003491FC01EF5AFD4FE491EE23C9F0222333
:1002F00039F0233001F1A8F4213019F1223029F12D
:10030000F0E0EE0FFF1FE75DFD4FA591B4918FB7B1
:10031000F894EC91611126C030953E233C938FBF39
:1003200008952730A9F02830C9F0243049F780918A
:1003300080008F7D03C0809180008F778093800044
:10034000DFCF84B58F7784BDDBCF84B58F7DFBCFC6
:100350008091B0008F778093B000D2CF8091B000B1
:100360008F7DF9CF3E2BDACF3FB7F89480911E01F5
:1003700090911F01A0912001B091210126B5A89B69
:1003800005C02F3F19F00196A11DB11D3FBFBA2F27
:10039000A92F982F8827BC01CD01620F711D811DE7
:1003A000911D42E0660F771F881F991F4A95D1F76C
:1003B00008958F929F92AF92BF92CF92DF92EF9269
:1003C000FF926C01F12CE12C0E94B4014B015C0105
:1003D00024E0821A9108A108B1080E94B4016819AA
:1003E00079098A099B096C157D058E059F05A8F37F
:1003F000FF90EF90DF90CF90BF90AF909F908F9045
:1004000008958F929F92AF92BF92CF92DF92EF9218
:10041000FF924B015C010E94B4016B017C010E94C0
:10042000B4016C197D098E099F09683E73408105EE
:100430009105A8F321E0821A9108A108B10888EE7D
:10044000C80E83E0D81EE11CF11C81149104A104A4
:10045000B10429F7FF90EF90DF90CF90BF90AF905D
:100460009F908F900895AF92BF92CF92DF92EF92BC
:10047000FF920F931F93CF93DF936C017B018B014E
:10048000040F151FEB015E01AE18BF08C017D1079E
:1004900059F06991D601ED91FC910190F081E02D28
:1004A000C6010995892B79F7C501DF91CF911F917D
:1004B0000F91FF90EF90DF90CF90BF90AF90089595
:1004C000FC01538D448D252F30E0842F90E0821B5A
:1004D000930B541710F0CF96089501970895FC01DF
:1004E000918D828D981761F0A28DAE0FBF2FB11D37
:1004F0005D968C91928D9F5F9F73928F90E008958F
:100500008FEF9FEF08950F931F93CF93DF9306E232
:1005100011E0D0E0C0E02FB7F894809122019091D3
:100520002301A0912401B09125012FBF80934601A2
:1005300090934701A0934801B09349018EE391E065
:100540000E946F0297FF2AC02FB7F8948091220172
:1005500090912301A0912401B09125012FBF4091DA
:100560004601509147016091480170914901841BF7
:10057000950BA60BB70B409142015091430160913E
:1005800044017091450184179507A607B707B0F29B
:10059000CE01DF91CF911F910F9108958A3091057F
:1005A000B9F3F80181938F012196C431D10509F087
:1005B000B2CFEECFFC01918D828D981731F0828DF4
:1005C000E80FF11D858D90E008958FEF9FEF08955E
:1005D000FC01918D228D892F90E0805C9F4F821BC2
:1005E00091098F73992708958EE391E00E94E802A4
:1005F00021E0892B09F420E0822F089580E090E02B
:10060000892B29F00E94F40281110C9400000895B6
:10061000FC01A48DA80FB92FB11DA35ABF4F2C9177
:10062000848D90E001968F739927848FA689B7896E
:100630002C93A089B1898C91837080648C93938D65
:10064000848D981306C00288F389E02D80818F7D08
:1006500080830895EF92FF920F931F93CF93DF93C0
:10066000EC0181E0888F9B8D8C8D98131AC0E889EE
:10067000F989808185FF15C09FB7F894EE89FF89BD
:100680006083E889F98980818370806480839FBF5B
:1006900081E090E0DF91CF911F910F91FF90EF905B
:1006A0000895F62E0B8D10E00F5F1F4F0F7311276B
:1006B000E02E8C8D8E110CC00FB607FCFACFE889A6
:1006C000F989808185FFF5CFCE010E940803F1CF23
:1006D000EB8DEC0FFD2FF11DE35AFF4FF0829FB71A
:1006E000F8940B8FEA89FB8980818062CFCF0F93CA
:1006F0001F93CF93DF938C01D0E0C0E0F801EC0FA3
:10070000FD1F6491662341F08EE391E00E942A036D
:10071000892B11F02196F2CFCE01DF91CF911F915D
:100720000F910895CF93DF93EC01888D8823B9F062
:10073000AA89BB89E889F9898C9185FD03C08081EC
:1007400086FD0DC00FB607FCF7CF8C9185FFF2CF69
:10075000808185FFEDCFCE010E940803E9CFDF91B4
:10076000CF910895982F8091AD02882379F08091E0
:10077000AC02992329F061E0811105C02D9A0895FA
:10078000882319F060E00C9468012D9808954F9229
:100790005F926F927F928F929F92AF92BF92CF9211
:1007A000DF92EF92FF92CF93DF93CDB7DEB72C9716
:1007B0000FB6F894DEBF0FBECDBF7C010E94B4011E
:1007C00069837A838B839C834B015C0120E0B0E0DA
:1007D000A0E0A701BD0145525109610971094D838E
:1007E0005E836F837887A701BD0147505109610976
:1007F000710949875A876B877C87F8945B9A809147
:100800003C0190913D018230910538F0880F991F8D
:10081000880F991F05970197F1F75B98789421113C
:1008200003C081E00E94B20380913A0190913B01A4
:10083000880E991EA11CB11C0E94B4012B013C0121
:100840006B0169817A81C61AD70AF12CE12C8D815E
:100850009E81AF81B885C816D906EA06FB061CF052
:1008600080E00E94B20349855A856B857C85C41659
:10087000D506E606F7063CF421E0481459046A045C
:100880007B04D0F2BACF2C960FB6F894DEBF0FBE21
:10089000CDBFDF91CF91FF90EF90DF90CF90BF90D1
:1008A000AF909F908F907F906F905F904F90089542
:1008B0002F923F924F925F926F927F928F92AF9260
:1008C000CF92DF92EF92FF920F931F93CF93DF931C
:1008D00000D000D000D0CDB7DEB79C838B837E8361
:1008E0006D835A834983190127013801AA2089F1B0
:1008F0002C2D2150330BC901C12CD12C7601C3946E
:1009000004C0CC0CDD1CEE1CFF1C8A95D2F7C11470
:10091000D104E104F104B1F1D701C601842195218C
:10092000A621B721892B8A2B8B2B69F08B819C8187
:100930000E94C7038D819E810E94D901F694E7949D
:10094000D794C794E4CF89819A810E94C703C101DB
:10095000F3CFF12CCF14B1F040FE0EC08B819C81FF
:100960000E94C7038D819E810E94D901F3947694E1
:10097000679457944794EECF89819A810E94C70368
:10098000C101F2CF8820D1F089819A8126960FB6D5
:10099000F894DEBF0FBECDBFDF91CF911F910F91B5
:1009A000FF90EF90DF90CF90AF908F907F906F90FF
:1009B0005F904F903F902F900C94C70326960FB6F0
:1009C000F894DEBF0FBECDBFDF91CF911F910F9185
:1009D000FF90EF90DF90CF90AF908F907F906F90CF
:1009E0005F904F903F902F900895EAE3F1E0282F19
:1009F000269530E028513C4F682F70E0C9010E94D5
:100A0000A20C7183608388E090E093838283539A81
:100A10005B9880E00C94B2038F929F92AF92BF924A
:100A20000F931F93CF93DF93CDB7DEB7A1970FB688
:100A3000F894DEBF0FBECDBF19A2423008F44AE0E1
:100A40008E010F5D1F4F842E912CB12CA12CA5017E
:100A500094010E942F0CE62FB901CA01EA3044F537
:100A6000E05DD801EE938D01232B242B252B79F704
:100A700090E080E0109769F0FD0101900020E9F717
:100A80003197AF014A1B5B0BBD018EE391E00E94E1
:100A90003302A1960FB6F894DEBF0FBECDBFDF9133
:100AA000CF911F910F91BF90AF909F908F9008951D
:100AB000E95CD7CF42E050E064E171E08EE391E081
:100AC0000C943302CF93DF930E947703EC010E94D2
:100AD0005A058C0F9D1FDF91CF9108951F920F92A1
:100AE0000FB60F9211242F933F938F939F93AF9341
:100AF000BF938091220190912301A0912401B09194
:100B0000250130911D0123E0230F2D3758F5019663
:100B1000A11DB11D20931D018093220190932301FB
:100B2000A0932401B093250180911E0190911F0193
:100B3000A0912001B09121010196A11DB11D8093CA
:100B40001E0190931F01A0932001B0932101BF913A
:100B5000AF919F918F913F912F910F900FBE0F906A
:100B60001F90189526E8230F0296A11DB11DD2CF24
:100B70001F920F920FB60F9211242F933F934F9312
:100B80005F936F937F938F939F93AF93BF93EF93F5
:100B9000FF938EE391E00E940803FF91EF91BF91D4
:100BA000AF919F918F917F916F915F914F913F9105
:100BB0002F910F900FBE0F901F9018951F920F92BC
:100BC0000FB60F9211242F938F939F93EF93FF9360
:100BD000E0914E01F0914F018081E0915401F0913C
:100BE000550182FD1BC09081809157018F5F8F73EB
:100BF00020915801821741F0E0915701F0E0E25C4A
:100C0000FE4F958F80935701FF91EF919F918F91A8
:100C10002F910F900FBE0F901F9018958081F4CFE9
:100C20001F920F920FB60F9211242F933F934F9361
:100C30005F936F937F938F939F93AF93BF93EF9344
:100C4000FF93E091DD01F091DE0190818091DF0161
:100C500098232091E0013091E1012F3F320731F0DC
:100C60002F5F3F4F3093E1012093E0018091DB0142
:100C7000811132C0911116C02091E0013091E10143
:100C80002536310558F01092E2013093E5012093AA
:100C9000E40181E08093E3018093DB011092E101A4
:100CA0001092E0018091AD02882329F081E091113A
:100CB00080E00E94B203FF91EF91BF91AF919F91AD
:100CC0008F917F916F915F914F913F912F910F90F5
:100CD0000FBE0F901F9018958091DB018130A1F419
:100CE000992301F3E091E3018E0F8093E301F0E09B
:100CF000EE0FFF1FE552FE4F2091E0013091E10120
:100D00003287218782E0C8CF8091DB01823039F5BC
:100D1000911119C0E091E30181E0E43620F0809365
:100D2000E20183E0B9CF8E0F8093E301F0E0EE0F94
:100D3000FF1FE552FE4F2091E0013091E101328723
:100D4000218781E0A9CF2091E0013091E101253692
:100D5000310508F4A7CF83E08093DB01A3CF809116
:100D6000DB01833009F09ECF992309F497CF9ACF06
:100D7000EEE3F1E01382128288EE93E0A0E0B0E0AF
:100D800084839583A683B78386E091E091838083F3
:100D900085EC90E09587848784EC90E09787868740
:100DA00080EC90E0918B808B81EC90E0938B828B38
:100DB00082EC90E0958B848B86EC90E0978B868B11
:100DC000118E128E138E148EABEDB1E0B093BE0275
:100DD000A093BD0211961C921197E5E6F2E0E49112
:100DE0001496EC931497E1E5F2E0E491F0E0EE0F55
:100DF000FF1FE95BFD4F8591949113969C938E9311
:100E00001297ECEAF2E0108211820895CF93DF93FB
:100E100000D000D000D0CDB7DEB7789484B5826022
:100E200084BD84B5816084BD85B5826085BD85B58E
:100E3000816085BD80916E00816080936E0010920C
:100E40008100809181008260809381008091810087
:100E50008160809381008091800081608093800018
:100E60008091B10084608093B1008091B000816076
:100E70008093B00080917A00846080937A008091A2
:100E80007A00826080937A0080917A0081608093FA
:100E90007A0080917A00806880937A001092C10075
:100EA000E0914E01F0914F0182E08083E0914A0190
:100EB000F0914B011082E0914C01F0914D0180E1E5
:100EC000808310925601E0915201F091530186E027
:100ED0008083E0915001F091510180818061808395
:100EE000E0915001F0915101808188608083E09110
:100EF0005001F0915101808180688083E091500120
:100F0000F091510180818F7D80831092AC0281E04D
:100F10008093AD02E2E7F2E02491EEE5F2E0849105
:100F2000882399F090E0880F991FFC01E859FF4F42
:100F3000A591B491FC01E75DFD4F859194918FB728
:100F4000F894EC91E22BEC938FBF89EB90E00E9438
:100F500077034AE063E070E080E090E00E940C05D7
:100F60000E945A058FE990E00E94620582E790E0B6
:100F70000E946205DD24DA94E0E02E2EE0E03E2EB1
:100F8000D09201011092190110921A0110921B01C6
:100F900010921C0110921801D092000181E292E09F
:100FA0000E94620588E192E00E9462058AE092E078
:100FB0000E94620582E092E00E94620586EF91E065
:100FC0000E9462058FEE91E00E94620584EC91E040
:100FD0000E946205809101018F3F39F48EE391E018
:100FE0000E946F0280930101F5CF84EB91E00E9493
:100FF00062058091190190911A01A0911B01B09195
:101000001C01892B8A2B8B2BC1F40E948302FC01CB
:10101000FF27EA5DFE4F108240E150E070E060E0A3
:1010200086E291E00E94FC0A6093190170931A0114
:1010300080931B0190931C01DCCF84EA91E00E9415
:10104000620580911801811112C00E948302FC0187
:10105000FF27EA5DFE4F108240E150E070E060E063
:1010600086E291E00E94FC0A60931801EACF88E9C9
:1010700091E00E9477036091190170911A018091AB
:101080001B0190911C0140E10E940C050E945A0531
:101090008CE891E00E9477036091180170E090E085
:1010A00080E040E10E940C050E945A0580910101F8
:1010B000833309F466C194F4813309F49BC082330D
:1010C00009F4F2C02114310409F45ACF0E94F40249
:1010D000882309F455CF0E94000052CF853309F4CC
:1010E00000C20CF4ACC1863369F787EE90E00E9431
:1010F0006205809100018F3F29F780911801282F08
:1011000030E04090190150901A0160901B017090DE
:101110001C01E4E1440C551C661C771CEA95D1F7D0
:1011200044245524B0EF6B22BFE07B2290E0B0E076
:10113000A0E0F4E0880F991FAA1FBB1FFA95D1F712
:1011400084299529A629B72944E050E060E0722F50
:101150007F70670F74E0369527957A95E1F74150D7
:101160005109A9F7262F2F702C013D01422A86E252
:101170000E94F50488E293E20E94C70388E690E1AA
:101180000E94D90188248394AA24A3948CE1C82EB8
:101190008301720126E232E044EF51E06CE276E036
:1011A00084EF91E00E94580464E370E080E090E0F6
:1011B0000E94010286E20E94F50488E293E20E9406
:1011C000C70380ED97E00E94D90184EF91E00E946F
:1011D000C7038AED90E00E94620568EE73E080E04C
:1011E00090E00E9401028EE391E00E946F028093E2
:1011F00000017FCF8DE791E00E94620580910001A0
:101200008F3F09F05FCF00911801909119018091F3
:101210001A01E92EF82E97012227F92EF094232B9C
:1012200009F0F82E102F109586E20E94F50480E058
:1012300093E20E94C70380E891E10E94D9018824CB
:101240008394A12C70E2C72E20E332E040E352E009
:1012500060E976E080E392E00E94580460E370E089
:1012600080E090E00E94010286E20E94F50480E0A6
:1012700093E20E94C70380EC98E00E94D90180E3CA
:1012800092E00E94C70380E791E00E94620568EE49
:1012900073E080E090E00E9401028EE391E00E9402
:1012A0006F0280930001AACF80E691E00E94620560
:1012B000809100018F3F09F005CF40901801809088
:1012C000190190901A01A0901B01B0901C0188E2B6
:1012D0000E94F50482E090E09E838D83512C712C56
:1012E000612CD501C401AA27BB2789839A83AB83CC
:1012F000BC8380E699E00E94C70388E592E00E94E3
:10130000D901812CA12C57E0C52E8301720128E55B
:1013100032E048E552E068E572E080EB94E00E943C
:10132000580465E0C62EE980FA800B811C8128E50F
:1013300032E048E552E068E572E080EB94E00E941C
:101340005804AD81BE81119759F068E170E080E0EA
:1013500090E00E94010281E090E09E838D83C9CFDE
:1013600083E591E00E94620568EE73E080E090E022
:101370000E9401028EE391E00E946F0280930001BF
:1013800097CF8EE391E00E946205809100018F3F2C
:1013900009F098CE40901801A0911901B0911A015E
:1013A000BA83A98385E20E94F50489819A8134E099
:1013B000880F991F3A95E1F79A838983582E592609
:1013C000542442E0642E712C80E89DE00E94C70303
:1013D00080EC96E00E94D901812CA12C80E1C82EDE
:1013E00012E0E12E10E2F12E00E010E020EB31E0FF
:1013F00040EB51E060E175E080EB91E00E94580421
:101400008824839420E2C22EE980FA80820120EBB6
:1014100031E040EB51E060E175E080EB91E00E944B
:1014200058046A94672809F4D6C06AE470E080E042
:1014300090E00E94010266246394712CC5CF82E281
:1014400091E00E946205809100018F3F09F03ACE41
:1014500040901801A0911901A98386E20E94F50429
:1014600080EE90E20E94C70380E790E10E94D901DC
:10147000B981542C4B2E052C000C66087708882463
:101480008394A12C10E1C12E830172012EE032E081
:101490004EE052E06AE276E08EE092E00E9458046C
:1014A00067E170E080E090E00E9401022EE032E00F
:1014B0004EE052E06AE276E08EE092E00E9458044C
:1014C00085E191E00E94620568EE73E080E090E0C3
:1014D0000E9401028EE391E00E946F02809300015E
:1014E000B2CF82E091E00E946205809100018F3FBF
:1014F00009F0E8CDE09018018E2D90E09A83898361
:101500004090190150901A0160901B0170901C01CD
:1015100086E20E94F50488E491E10E94C70388E412
:1015200091E10E94D9018301720100271127812CCA
:10153000A12CA0E1CA2E29E232E049E252E06BE799
:1015400076E089E292E00E945804E980FA80E09413
:10155000F094FE2CEE24A981BA81EA2AFB2A10E03D
:1015600000E08824839429E232E049E252E06BE70C
:1015700076E089E292E00E94580467E370E080E040
:1015800090E00E94010286E20E94F50488E491E165
:101590000E94C70388E491E10E94D90189E292E0A8
:1015A0000E94C70389E292E00E94D90189E292E099
:1015B0000E94C70385EF90E00E94620568EE73E029
:1015C00080E090E00E9401028EE391E00E946F02B1
:1015D000809300018ACF81E391E00E94620568EE6A
:1015E00073E080E090E00E9401028EE391E00E94AF
:1015F0006F0280930001C9CEB0E0A0E0E2E0FBE022
:101600000C945D0C5C016B017A016115710519F098
:10161000FB0191838083E114F10451F0C70102972B
:10162000839730F040E030E020E090E072C05E014F
:10163000E5012196F5011081812F90E00E94130CA5
:10164000892BA9F71D3201F52196F501118101E0E1
:10165000E114F10409F4DAC0F0E1EF16F10409F045
:1016600082C0103359F488818F7D883509F076C0A7
:10167000198122960260F0E1EF2EF12C812C912C41
:10168000A12C88E0B82E8CC01B3221F4E5012296F3
:10169000F501118100E0DCCFEAE0EE16F10409F477
:1016A000BBC0F0E1EF16F10409F06DC0E7CF78E0C0
:1016B000E72EF12C812C912CA12C60E1B62E70C06C
:1016C0003FE9310F3A3128F439EA332E80C021E066
:1016D0009AC0302F3170C114D10431F0222309F1A6
:1016E0002197F601D183C08327FF21C060E070E01D
:1016F00080E090E8311104C06FEF7FEF8FEF9FE73C
:1017000022E230E03093CB022093CA02462F372FDB
:10171000282F642F732F822FCDB7DEB7E1E10C9411
:10172000790C01FF04C02297F601D183C0833323D3
:1017300041F090958095709561957F4F8F4F9F4FA9
:10174000E5CF97FFE3CF82E290E09093CB028093C6
:10175000CA026FEF7FEF8FEF9FE7D8CF10E3E1145E
:10176000F10409F4A4CF28E0E216F10409F4A2CFB1
:101770000CF092CF812C912CA12CE0E4BE2E82E0C3
:10178000E816F10469F060E070E080E090E897010D
:101790000F2C000C440B550B0E942F0C49015A01D1
:1017A00020E060E070E0CB0127010F2C000C660800
:1017B0007708FE0150ED352E310E39E0331540F437
:1017C0003FEB310F3A3108F07BCF49EC342E310E2C
:1017D0003E141F040CF07DCF27FD15C0861697061A
:1017E000A806B90678F0A30192010E941F0C630DB0
:1017F000711D811D911D61307105810520E89207E1
:1018000008F465CF2FEF21961081D3CF103309F460
:101810002ACF2AE0E22EF12C9CEC892E982CA82CC1
:101820009CE0B92EBDCF91110C941C0C803219F0A4
:1018300089508550C8F70895992788270895DB01B6
:101840008F939F930E94510CBF91AF91A29F800DE7
:10185000911DA39F900DB29F900D11240895A1E2B8
:101860001A2EAA1BBB1BFD010DC0AA1FBB1FEE1F1A
:10187000FF1FA217B307E407F50720F0A21BB30B65
:10188000E40BF50B661F771F881F991F1A9469F7E1
:1018900060957095809590959B01AC01BD01CF013D
:1018A00008950E94930CA59F900DB49F900DA49F46
:1018B000800D911D112408952F923F924F925F92B7
:1018C0006F927F928F929F92AF92BF92CF92DF9250
:1018D000EF92FF920F931F93CF93DF93CDB7DEB7B5
:1018E000CA1BDB0B0FB6F894DEBF0FBECDBF099449
:1018F0002A88398848885F846E847D848C849B84A0
:10190000AA84B984C884DF80EE80FD800C811B81AD
:10191000AA81B981CE0FD11D0FB6F894DEBF0FBEDC
:10192000CDBFED010895A29FB001B39FC001A39F59
:10193000700D811D1124911DB29F700D811D112408
:10194000911D0895AA1BBB1B51E107C0AA1FBB1F15
:10195000A617B70710F0A61BB70B881F991F5A953B
:10196000A9F780959095BC01CD010895EE0FFF1F5A
:0C1970000590F491E02D0994F894FFCF4D
:10197C00FFFF000000002A03330260029203E8021A
:08198C006F02DA020D0A0000EF
:00000001FF
