:100000000C94F7010C941F020C941F020C941F0215
:100010000C941F020C941F020C941F020C941F02DC
:100020000C94E7060C941F020C941F020C941F0200
:100030000C941F020C941F020C941F020C941F02BC
:100040000C9445060C941F020C94B5060C948F0674
:100050000C941F020C941F020C941F020C941F029C
:100060000C941F020C941F020000000024002700C3
:100070002A00456E746572203020546F2066696EC8
:100080006973682073656E64696E670052656164A8
:100090007920746F2073656E6420495220736967FC
:1000A0006E616C732061742070696E20002A2A20B2
:1000B0006C6962726172792076657273696F6E2005
:1000C0002020203A20312E302E3000506C65617394
:1000D0006520656E7465722074686520636F727246
:1000E0006563742070726F746F636F6C206E756DD2
:1000F000626572203A202866726F6D203120746F1D
:100100002036290053656E64696E6720495220438A
:100110006F6465732D2D2D3E20002D2D2D2D2D2D41
:100120002D2D2D2D2D2D2D2D2D2D2D2D2D2D2D2DFF
:100130002D2D2D2D2D2D2D2D2D2D0050726F746FE9
:10014000636F6C203A204C470053656E64696E679C
:1001500020495220436F6465732D2D2D3E20002DC4
:100160002D2D2D2D2D2D2D2D2D2D2D2D2D2D2D2DBF
:100170002D2D2D2D2D2D2D2D2D2D2D2D2D2D2D00DC
:1001800050726F746F636F6C203A2053616D73759A
:100190006E670053656E64696E6720495220436F35
:1001A0006465732D2D2D3E20002D2D2D2D2D2D2DF3
:1001B0002D2D2D2D2D2D2D2D2D2D2D2D2D2D2D2D6F
:1001C0002D2D2D2D2D2D2D2D2D0050726F746F6323
:1001D0006F6C203A204A56430053656E64696E671F
:1001E00020495220436F6465732D2D2D3E20002D34
:1001F0002D2D2D2D2D2D2D2D2D2D2D2D2D2D2D2D2F
:100200002D2D2D2D2D2D2D2D2D2D2D2D2D2D2D004B
:1002100050726F746F636F6C203A2050616E61731F
:100220006F6E69630053656E64696E672049522082
:10023000436F6465732D2D2D3E20002D2D2D2D2D0A
:100240002D2D2D2D2D2D2D2D2D2D2D2D2D2D2D2DDE
:100250002D2D2D2D2D2D2D2D2D2D2D0050726F740A
:100260006F636F6C203A20536F6E790053656E6434
:10027000696E6720495220436F6465732D2D2D3EB2
:1002800020002D2D2D2D2D2D2D2D2D2D2D2D2D2DD8
:100290002D2D2D2D2D2D2D2D2D2D2D2D2D2D2D2D8E
:1002A0002D2D0050726F746F636F6C203A204E4595
:1002B0004300436F6D6D616E64203A2030780041D9
:1002C000646472657373203A203078002D2D2D2DD3
:1002D0002D2D2D20495220436F64657320496E6691
:1002E0006F202D2D2D2D2D2D2D00456E7465722026
:1002F000436F6D6D616E64203A00456E74657220C7
:1003000041646472657373203A0053656C6563746D
:100310002074686520646573697265642070726F0B
:10032000746F636F6C202866726F6D203120746F5C
:100330002036293A0036202D204C470035202D202C
:1003400053616D73756E670034202D204A5643004B
:1003500033202D2050616E61736F6E69630032200F
:100360002D20536F6E790031202D204E4543002DF6
:100370002D2D2D2D2D2D2D2D2D2D2D2D2D2D2D2DAD
:100380002D2D2D2D2D2D2D2D2D2D2D2D2D2D2D2D9D
:100390002D2D2D2D2D2D2D2D2D2D2D00000000006E
:1003A000250028002B0000000008000201000003C7
:1003B000040700000000000000000000000023000F
:1003C00026002900040404040404040402020202B6
:1003D0000202030303030303010204081020408008
:1003E0000102040810200102040810208F071124C4
:1003F0001FBECFEFD8E0DEBFCDBF23E0A8E1B2E063
:1004000001C01D92AD3CB207E1F712E0A0E0B1E0FF
:10041000EEE5FCE102C005900D92A831B107D9F7D5
:1004200011E0C7EFD1E004C02197FE010E94270E22
:10043000C63FD107C9F70E94DD070C942D0E0C941E
:10044000000090E0FC01EA55FC4F2491FC01E852C9
:10045000FC4F3491FC01EC53FC4FE491EE23C9F0C6
:10046000222339F0233001F1A8F4213019F1223090
:1004700029F1F0E0EE0FFF1FE456FC4FA591B49177
:100480008FB7F894EC91611126C030953E233C93D0
:100490008FBF08952730A9F02830C9F0243049F7DC
:1004A000809180008F7D03C0809180008F77809342
:1004B0008000DFCF84B58F7784BDDBCF84B58F7D9F
:1004C000FBCF8091B0008F778093B000D2CF809126
:1004D000B0008F7DF9CF3E2BDACF3FB7F8948091F3
:1004E0001F0290912002A0912102B091220226B514
:1004F000A89B05C02F3F19F00196A11DB11D3FBF5C
:10050000BA2FA92F982F8827BC01CD01620F711D2A
:10051000811D911D42E0660F771F881F991F4A9524
:10052000D1F708958F929F92AF92BF92CF92DF92B0
:10053000EF92FF926C01F12CE12C0E946D024B01B5
:100540005C0124E0821A9108A108B1080E946D02A2
:10055000681979098A099B096C157D058E059F0527
:10056000A8F3FF90EF90DF90CF90BF90AF909F9057
:100570008F9008958F929F92AF92BF92CF92DF9209
:10058000EF92FF924B015C010E946D026B017C01B6
:100590000E946D026C197D098E099F09683E7340A7
:1005A00081059105A8F321E0821A9108A108B108FC
:1005B00088EEC80E83E0D81EE11CF11C8114910462
:1005C000A104B10429F7FF90EF90DF90CF90BF9086
:1005D000AF909F908F900895AF92BF92CF92DF928D
:1005E000EF92FF920F931F93CF93DF936C017B01E8
:1005F0008B01040F151FEB015E01AE18BF08C01779
:10060000D10759F06991D601ED91FC910190F081EB
:10061000E02DC6010995892B79F7C501DF91CF91AE
:100620001F910F91FF90EF90DF90CF90BF90AF9010
:100630000895FC01538D448D252F30E0842F90E0E8
:10064000821B930B541710F0CF96089501970895CD
:10065000FC01918D828D981761F0A28DAE0FBF2F96
:10066000B11D5D968C91928D9F5F9F73928F90E0EC
:1006700008958FEF9FEF08950F931F93CF93DF930C
:1006800007E212E0D0E0C0E02FB7F8948091230297
:1006900090912402A0912502B09126022FBF809351
:1006A000470290934802A0934902B0934A028FE315
:1006B00092E00E94280397FF2AC02FB7F8948091F8
:1006C000230290912402A0912502B09126022FBF0F
:1006D00040914702509148026091490270914A024C
:1006E000841B950BA60BB70B40914302509144021B
:1006F000609145027091460284179507A607B707D7
:10070000B0F2CE01DF91CF911F910F9108958A3001
:100710009105B9F3F80181938F012196C431D10578
:1007200009F0B2CFEECFFC01918D828D981731F098
:10073000828DE80FF11D858D90E008958FEF9FEF7A
:100740000895FC01918D228D892F90E0805C9F4F50
:10075000821B91098F73992708958FE392E00E947D
:10076000A10321E0892B09F420E0822F089580E085
:1007700090E0892B29F00E94AD0381110C940000B8
:100780000895FC01A48DA80FB92FB11DA35ABF4F26
:100790002C91848D90E001968F739927848FA68980
:1007A000B7892C93A089B1898C91837080648C93D4
:1007B000938D848D981306C00288F389E02D808183
:1007C0008F7D80830895EF92FF920F931F93CF93B5
:1007D000DF93EC0181E0888F9B8D8C8D98131AC07C
:1007E000E889F989808185FF15C09FB7F894EE8963
:1007F000FF896083E889F9898081837080648083C0
:100800009FBF81E090E0DF91CF911F910F91FF900A
:10081000EF900895F62E0B8D10E00F5F1F4F0F73B2
:100820001127E02E8C8D8E110CC00FB607FCFACF6D
:10083000E889F989808185FFF5CFCE010E94C10347
:10084000F1CFEB8DEC0FFD2FF11DE35AFF4FF0823E
:100850009FB7F8940B8FEA89FB8980818062CFCFA4
:100860000F931F93CF93DF938C01D0E0C0E0F8018A
:10087000EC0FFD1F6491662341F08FE392E00E942C
:10088000E303892B11F02196F2CFCE01DF91CF91B6
:100890001F910F910895CF93DF93EC01888D8823EA
:1008A000B9F0AA89BB89E889F9898C9185FD03C0D3
:1008B000808186FD0DC00FB607FCF7CF8C9185FFB8
:1008C000F2CF808185FFEDCFCE010E94C103E9CF39
:1008D000DF91CF910895982F8091AE03882379F00E
:1008E0008091AD03992329F061E0811105C02D9A13
:1008F0000895882319F060E00C9421022D98089542
:100900004F925F926F927F928F929F92AF92BF921F
:10091000CF92DF92EF92FF92CF93DF93CDB7DEB706
:100920002C970FB6F894DEBF0FBECDBF7C010E949E
:100930006D0269837A838B839C834B015C0120E089
:10094000B0E0A0E0A701BD0145525109610971095C
:100950004D835E836F837887A701BD01475051099E
:100960006109710949875A876B877C87F8945B9A7C
:1009700080913D0290913E028230910538F0880FBF
:10098000991F880F991F05970197F1F75B98789445
:10099000211103C081E00E946B0480913B02909181
:1009A0003C02880E991EA11CB11C0E946D022B01F5
:1009B0003C016B0169817A81C61AD70AF12CE12CBE
:1009C0008D819E81AF81B885C816D906EA06FB06DF
:1009D0001CF080E00E946B0449855A856B857C85FC
:1009E000C416D506E606F7063CF421E0481459047F
:1009F0006A047B04D0F2BACF2C960FB6F894DEBF0F
:100A00000FBECDBFDF91CF91FF90EF90DF90CF90E1
:100A1000BF90AF909F908F907F906F905F904F901E
:100A200008952F923F924F925F926F927F928F9292
:100A3000AF92CF92DF92EF92FF920F931F93CF93DB
:100A4000DF9300D000D000D0CDB7DEB79C838B837E
:100A50007E836D835A834983190127013801AA20B7
:100A600089F12C2D2150330BC901C12CD12C7601D9
:100A7000C39404C0CC0CDD1CEE1CFF1C8A95D2F77D
:100A8000C114D104E104F104B1F1D701C6018421FC
:100A90009521A621B721892B8A2B8B2B69F08B817D
:100AA0009C810E9480048D819E810E949202F69416
:100AB000E794D794C794E4CF89819A810E948004F7
:100AC000C101F3CFF12CCF14B1F040FE0EC08B81E9
:100AD0009C810E9480048D819E810E949202F394E9
:100AE0007694679457944794EECF89819A810E94B7
:100AF0008004C101F2CF8820D1F089819A812696A5
:100B00000FB6F894DEBF0FBECDBFDF91CF911F911E
:100B10000F91FF90EF90DF90CF90AF908F907F90EC
:100B20006F905F904F903F902F900C94800426968A
:100B30000FB6F894DEBF0FBECDBFDF91CF911F91EE
:100B40000F91FF90EF90DF90CF90AF908F907F90BC
:100B50006F905F904F903F902F900895EBE3F2E0FD
:100B6000282F269530E028513C4F682F70E0C901AE
:100B70000E94130E7183608388E090E093838283E8
:100B8000539A5B9880E00C946B04FC010190002068
:100B9000E9F73197AF01481B590BBC018FE392E095
:100BA0000C94EC02CF93DF930E943004EC0184E1BB
:100BB00091E00E94C5058C0F9D1FDF91CF91089594
:100BC0008F929F92AF92BF920F931F93CF93DF9319
:100BD000CDB7DEB7A1970FB6F894DEBF0FBECDBF7D
:100BE00019A2423008F44AE08E010F5D1F4F842E97
:100BF000912CB12CA12CA50194010E94A00DE62FEF
:100C0000B901CA01EA30F4F4E05DD801EE938D0138
:100C1000232B242B252B79F790E080E0109719F0F7
:100C2000CD010E94C505A1960FB6F894DEBF0FBE98
:100C3000CDBFDF91CF911F910F91BF90AF909F904B
:100C40008F900895E95CE1CFCF93DF930E94C505B3
:100C5000EC0184E191E00E94C5058C0F9D1FDF919E
:100C6000CF910895CF93DF93462F682F70E090E0E7
:100C700080E00E94E005EC0184E191E00E94C5055E
:100C80008C0F9D1FDF91CF9108951F920F920FB689
:100C90000F9211242F933F938F939F93AF93BF9302
:100CA0008091230290912402A0912502B091260206
:100CB00030911E0223E0230F2D3758F50196A11D18
:100CC000B11D20931E028093230290932402A093CF
:100CD0002502B093260280911F0290912002A091DC
:100CE0002102B09122020196A11DB11D80931F0225
:100CF00090932002A0932102B0932202BF91AF9162
:100D00009F918F913F912F910F900FBE0F901F9049
:100D1000189526E8230F0296A11DB11DD2CF1F9270
:100D20000F920FB60F9211242F933F934F935F931F
:100D30006F937F938F939F93AF93BF93EF93FF93A3
:100D40008FE392E00E94C103FF91EF91BF91AF91B9
:100D50009F918F917F916F915F914F913F912F91D3
:100D60000F900FBE0F901F9018951F920F920FB605
:100D70000F9211242F938F939F93EF93FF93E09102
:100D80004F02F09150028081E0915502F09156029D
:100D900082FD1BC09081809158028F5F8F732091DC
:100DA0005902821741F0E0915802F0E0E15CFD4FFA
:100DB000958F80935802FF91EF919F918F912F9182
:100DC0000F900FBE0F901F9018958081F4CF1F9247
:100DD0000F920FB60F9211242F933F934F935F936F
:100DE0006F937F938F939F93AF93BF93EF93FF93F3
:100DF000E091DE02F091DF0290818091E002982381
:100E00002091E1023091E2022F3F320731F02F5F53
:100E10003F4F3093E2022093E1028091DC02811186
:100E200032C0911116C02091E1023091E2022536C4
:100E3000310558F01092E3023093E6022093E50268
:100E400081E08093E4028093DC021092E20210922F
:100E5000E1028091AE03882329F081E0911180E0C6
:100E60000E946B04FF91EF91BF91AF919F918F9181
:100E70007F916F915F914F913F912F910F900FBE96
:100E80000F901F9018958091DC028130A1F4992376
:100E900001F3E091E4028E0F8093E402F0E0EE0FA4
:100EA000FF1FE452FD4F2091E1023091E2023287B0
:100EB000218782E0C8CF8091DC02823039F5911120
:100EC00019C0E091E40281E0E43620F08093E3026F
:100ED00083E0B9CF8E0F8093E402F0E0EE0FFF1FA6
:100EE000E452FD4F2091E1023091E20232872187E6
:100EF00081E0A9CF2091E1023091E202253631054F
:100F000008F4A7CF83E08093DC02A3CF8091DC02BA
:100F1000833009F09ECF992309F497CF9ACFEFE35E
:100F2000F2E01382128288EE93E0A0E0B0E08483C6
:100F30009583A683B78386E091E09183808385ECD7
:100F400090E09587848784EC90E09787868780EC93
:100F500090E0918B808B81EC90E0938B828B82EC84
:100F600090E0958B848B86EC90E0978B868B118E2E
:100F7000128E138E148EACEDB2E0B093BF03A0932B
:100F8000BE0311961C921197E8EDF3E0E4911496DC
:100F9000EC931497E4ECF3E0E491F0E0EE0FFF1F24
:100FA000E654FC4F8591949113969C938E931297DF
:100FB000EDEAF3E0108211820895CF93DF9300D021
:100FC00000D000D0CDB7DEB7789484B5826084BD00
:100FD00084B5816084BD85B5826085BD85B581603D
:100FE00085BD80916E00816080936E0010928100BB
:100FF0008091810082608093810080918100816076
:101000008093810080918000816080938000809136
:10101000B10084608093B1008091B00081608093C2
:10102000B00080917A00846080937A0080917A0089
:10103000826080937A0080917A00816080937A0048
:1010400080917A00806880937A001092C100E091CC
:101050004F02F091500282E08083E0914B02F091C8
:101060004C021082E0914D02F0914E0280E18083AB
:1010700010925702E0915302F091540286E080836F
:10108000E0915102F0915202808180618083E09171
:101090005102F0915202808188608083E091510278
:1010A000F0915202808180688083E0915102F0913A
:1010B000520280818F7D808368EE73E080E090E053
:1010C0000E94BA0287E191E00E94240684E192E046
:1010D0000E94240687E291E00E9424068EE491E0BB
:1010E0000E94240683E791E00E9424068BE991E0A8
:1010F0000E94240687EB91E00E9424068FED91E088
:101100000E9424068DEA90E00E94300486E191E07E
:101110000E94240684E192E00E9424068BEF91E075
:101120000E9424061092AD0381E08093AE03E5EEA9
:10113000F3E02491E1EDF3E08491882399F090E0CD
:10114000880F991FFC01E859FF4FA591B491FC014C
:10115000E456FC4F859194918FB7F894EC91E22B73
:10116000EC938FBF8CE890E00E9430044AE063E08B
:1011700070E080E090E00E94E00584E191E00E9450
:10118000C50582E790E00E94D205DD24DA94E0E014
:101190002E2EE0E03E2ED092010110921A02109203
:1011A0001B0210921C0210921D0210921902D09282
:1011B0000001109218028FE693E00E94D20587E6A4
:1011C00093E00E94D2058EE593E00E94D20580E56F
:1011D00093E00E94D20588E493E00E94D2058CE35C
:1011E00093E00E94D20585E393E00E94D2058AE055
:1011F00093E00E94D205809101018F3F39F48FE383
:1012000092E00E94280380930101F5CF8AEF92E0DB
:101210000E94D20580911A0290911B02A0911C029B
:10122000B0911D02892B8A2B8B2BC1F40E943C03A9
:10123000FC01FF27E95DFD4F108240E150E070E0C6
:1012400060E087E292E00E946D0C60931A02709356
:101250001B0280931C0290931D02DCCF8AEE92E069
:101260000E94D20580911902811112C00E943C0394
:10127000FC01FF27E95DFD4F108240E150E070E086
:1012800060E087E292E00E946D0C60931902EACF61
:101290008CEC92E00E94D2058FEB92E00E94300429
:1012A00060911A0270911B0280911C0290911D02A4
:1012B00040E10E94E00584E191E00E94C50582EBD7
:1012C00092E00E94300460E170E0809119020E9477
:1012D000320680910101833309F497C1B4F481335C
:1012E00009F4AEC0823309F414C18BEC90E00E9483
:1012F000D2052114310409F44ECF0E94AD03882396
:1013000009F449CF0E94000046CF853309F440C25A
:101310000CF4DDC1863349F78BE391E00E94D205DE
:101320008AE191E00E94D205809100018F3F09F788
:1013300080911902282F30E040901A0250901B0231
:1013400060901C0270901D02E4E1440C551C661C68
:10135000771CEA95D1F744245524B0EF6B22BFE007
:101360007B2290E0B0E0A0E0F4E0880F991FAA1F74
:10137000BB1FFA95D1F784299529A629B72944E0FE
:1013800050E060E0722F7F70670F74E0369527950C
:101390007A95E1F741505109A9F7262F2F702C01BA
:1013A0003D01422A86E20E94AE0588E293E20E9455
:1013B000800488E690E10E94920288248394AA2403
:1013C000A3948CE1C82E8301720126E232E044EF3F
:1013D00051E06CE276E084EF91E00E94110564E355
:1013E00070E080E090E00E94BA0286E20E94AE05C2
:1013F00088E293E20E94800480ED97E00E949202CE
:1014000084EF91E00E94800484E091E00E94300427
:101410006AE070E0809118020E9432068091180202
:101420008F5F8093180268E873E180E090E00E948B
:10143000BA028FE392E00E9428038093000174CFE8
:1014400083EA92E00E94D20582E892E00E94D205EF
:10145000809100018F3F09F04CCF009119029091CB
:101460001A0280911B02E92EF82E97012227F92EED
:10147000F094232B09F0F82E102F109586E20E948D
:10148000AE0580E093E20E94800480E891E10E9432
:10149000920288248394A12C70E2C72E20E332E0CC
:1014A00040E352E060E976E080E392E00E941105BB
:1014B00060E370E080E090E00E94BA0286E20E9461
:1014C000AE0580E093E20E94800480EC98E00E94E8
:1014D000920280E392E00E9480048CE692E00E94F7
:1014E00030046AE070E0809118020E943206809118
:1014F00018028F5F8093180268E873E180E090E043
:101500000E94BA028FE392E00E94280380930001B8
:101510009FCF8CE592E00E94D2058BE392E00E947F
:10152000D205809100018F3F09F0E3CE409019026F
:1015300080901A0290901B02A0901C02B0901D0295
:1015400088E20E94AE0582E090E09E838D83512C5C
:10155000712C612CD501C401AA27BB2789839A83EA
:10156000AB83BC8380E699E00E94800488E592E02A
:101570000E949202812CA12C57E0C52E830172019A
:1015800028E532E048E552E068E572E080EB94E05F
:101590000E94110565E0C62EE980FA800B811C814E
:1015A00028E532E048E552E068E572E080EB94E03F
:1015B0000E941105AD81BE81119759F068E170E07C
:1015C00080E090E00E94BA0281E090E09E838D83EB
:1015D000C9CF85E292E00E9430046AE070E0809119
:1015E00018020E943206809118028F5F80931802C1
:1015F00068E873E180E090E00E94BA028FE392E035
:101600000E942803809300018CCF80E192E00E9429
:10161000D2058FEE91E00E94D205809100018F3FAC
:1016200009F067CE40901902A0911A02B0911B02F6
:10163000BA83A98385E20E94AE0589819A8134E04C
:10164000880F991F3A95E1F79A838983582E592676
:10165000542442E0642E712C80E89DE00E948004B6
:1016600080EC96E00E949202812CA12C80E1C82E91
:1016700012E0E12E10E2F12E00E010E020EB31E06C
:1016800040EB51E060E175E080EB91E00E941105D4
:101690008824839420E2C22EE980FA80820120EB24
:1016A00031E040EB51E060E175E080EB91E00E94B9
:1016B00011056A94672809F4F4C06AE470E080E0D8
:1016C00090E00E94BA0266246394712CC5CF8AEC24
:1016D00091E00E94D20589EA91E00E94D2058091B2
:1016E00000018F3F09F005CE40901902A0911A0227
:1016F000A98386E20E94AE0580EE90E20E948004FB
:1017000080E790E10E949202B981542C4B2E052C67
:10171000000C6608770888248394A12C10E1C12E60
:10172000830172012EE032E04EE052E06AE276E0A0
:101730008EE092E00E94110567E170E080E090E0A9
:101740000E94BA022EE032E04EE052E06AE276E019
:101750008EE092E00E94110583E991E00E9430043E
:101760006AE070E0809118020E94320680911802AF
:101770008F5F8093180268E873E180E090E00E9438
:10178000BA028FE392E00E94280380930001A7CF62
:1017900080E891E00E94D2058FE591E00E94D20599
:1017A000809100018F3F09F0A4CDE09019028E2DA9
:1017B00090E09A83898340901A0250901B026090B7
:1017C0001C0270901D0286E20E94AE0588E491E141
:1017D0000E94800488E491E10E94920283017201D8
:1017E00000271127812CA12CA0E1CA2E29E232E08A
:1017F00049E252E06BE776E089E292E00E9411054F
:10180000E980FA80E094F094FE2CEE24A981BA815C
:10181000EA2AFB2A10E000E08824839429E232E0DF
:1018200049E252E06BE776E089E292E00E9411051E
:1018300067E370E080E090E00E94BA0286E20E94D6
:10184000AE0588E491E10E94800488E491E10E9461
:10185000920289E292E00E94800489E292E00E9472
:10186000920289E292E00E94800489E491E00E9461
:1018700030046AE070E0809118020E943206809184
:1018800018028F5F8093180268E873E180E090E0AF
:101890000E94BA028FE392E00E9428038093000125
:1018A0007FCF89ED91E00E9430046AE070E0809182
:1018B00018020E943206809118028F5F80931802EE
:1018C00068E873E180E090E00E94BA028FE392E062
:1018D0000E94280380930001A0CEB0E0A0E0E3E7DF
:1018E000FCE00C94CE0D5C016B017A016115710571
:1018F00019F0FB0191838083E114F10451F0C701D9
:101900000297839730F040E030E020E090E072C032
:101910005E01E5012196F5011081812F90E00E9482
:10192000840D892BA9F71D3201F52196F50111814E
:1019300001E0E114F10409F4DAC0F0E1EF16F1047A
:1019400009F082C0103359F488818F7D883509F001
:1019500076C0198122960260F0E1EF2EF12C812CE5
:10196000912CA12C88E0B82E8CC01B3221F4E5010B
:101970002296F501118100E0DCCFEAE0EE16F104D9
:1019800009F4BBC0F0E1EF16F10409F06DC0E7CF38
:1019900078E0E72EF12C812C912CA12C60E1B62E61
:1019A00070C03FE9310F3A3128F439EA332E80C054
:1019B00021E09AC0302F3170C114D10431F02223BC
:1019C00009F12197F601D183C08327FF21C060E090
:1019D00070E080E090E8311104C06FEF7FEF8FEF8F
:1019E0009FE722E230E03093CC032093CB03462FD5
:1019F000372F282F642F732F822FCDB7DEB7E1E169
:101A00000C94EA0D01FF04C02297F601D183C08334
:101A1000332341F090958095709561957F4F8F4F5E
:101A20009F4FE5CF97FFE3CF82E290E09093CC0306
:101A30008093CB036FEF7FEF8FEF9FE7D8CF10E35B
:101A4000E114F10409F4A4CF28E0E216F10409F44A
:101A5000A2CF0CF092CF812C912CA12CE0E4BE2ED1
:101A600082E0E816F10469F060E070E080E090E860
:101A700097010F2C000C440B550B0E94A00D49013F
:101A80005A0120E060E070E0CB0127010F2C000C30
:101A900066087708FE0150ED352E310E39E033151A
:101AA00040F43FEB310F3A3108F07BCF49EC342E54
:101AB000310E3E141F040CF07DCF27FD15C0861695
:101AC0009706A806B90678F0A30192010E94900D2E
:101AD000630D711D811D911D61307105810520E827
:101AE000920708F465CF2FEF21961081D3CF1033E2
:101AF00009F42ACF2AE0E22EF12C9CEC892E982CB6
:101B0000A82C9CE0B92EBDCF91110C948D0D803284
:101B100019F089508550C8F70895992788270895A6
:101B2000DB018F939F930E94C20DBF91AF91A29F43
:101B3000800D911DA39F900DB29F900D11240895CB
:101B4000A1E21A2EAA1BBB1BFD010DC0AA1FBB1FC1
:101B5000EE1FFF1FA217B307E407F50720F0A21B33
:101B6000B30BE40BF50B661F771F881F991F1A94A0
:101B700069F760957095809590959B01AC01BD01CA
:101B8000CF0108950E94040EA59F900DB49F900D63
:101B9000A49F800D911D112408952F923F924F9282
:101BA0005F926F927F928F929F92AF92BF92CF92ED
:101BB000DF92EF92FF920F931F93CF93DF93CDB7F6
:101BC000DEB7CA1BDB0B0FB6F894DEBF0FBECDBF6E
:101BD00009942A88398848885F846E847D848C843F
:101BE0009B84AA84B984C884DF80EE80FD800C8148
:101BF0001B81AA81B981CE0FD11D0FB6F894DEBF2B
:101C00000FBECDBFED010895A29FB001B39FC001EB
:101C1000A39F700D811D1124911DB29F700D811D18
:101C20001124911D0895AA1BBB1B51E107C0AA1FD7
:101C3000BB1FA617B70710F0A61BB70B881F991F6D
:101C40005A95A9F780959095BC01CD010895EE0FA6
:0E1C5000FF1F0590F491E02D0994F894FFCF4A
:101C5E00FFFF00000000E303EC0219034B04A10395
:101C6E00280393030D0A002A2A20496E74726F64AA
:101C7E00756374696F6E002A2A2050726F6A6563ED
:101C8E0074202020092020202020203A2053656E29
:101C9E0064696E6720495220436F646573002A2A77
:101CAE0020446576656C6F706572200920202020B7
:101CBE0020203A2048616D6964205368656962612D
:101CCE006E69002A2A2041647669736F7220202083
:101CDE002020202020202020203A204D72205961E3
:101CEE007A64616E62616B687368002A2A20436FA2
:101CFE006D70616E79202020092020202020203A4E
:101D0E0020466168616D002A2A20576562736974E6
:101D1E0065202020092020202020203A2077777768
:101D2E002E666168616D736D6172742E6972002A20
:101D3E002A204461746520092020202020203A208A
:101D4E0032372F31322F32303231002A2A2A2A2AC4
:101D5E002A2A2A2A2A2A2A2A2A2A2A2A2A2A2A2AD5
:081D6E002A2A2A2A2A2A000071
:00000001FF
